{
  "_format": "hh-sol-artifact-1",
  "contractName": "TestToken",
  "sourceName": "contracts/yearn-v2/utils/TestToken.sol",
  "abi": [
    {
      "anonymous": false,
      "inputs": [
        {
          "indexed": true,
          "internalType": "address",
          "name": "owner",
          "type": "address"
        },
        {
          "indexed": true,
          "internalType": "address",
          "name": "spender",
          "type": "address"
        },
        {
          "indexed": false,
          "internalType": "uint256",
          "name": "amount",
          "type": "uint256"
        }
      ],
      "name": "Approval",
      "type": "event"
    },
    {
      "anonymous": false,
      "inputs": [
        {
          "indexed": true,
          "internalType": "address",
          "name": "from",
          "type": "address"
        },
        {
          "indexed": true,
          "internalType": "address",
          "name": "to",
          "type": "address"
        },
        {
          "indexed": false,
          "internalType": "uint256",
          "name": "amount",
          "type": "uint256"
        }
      ],
      "name": "Transfer",
      "type": "event"
    },
    {
      "inputs": [],
      "name": "DOMAIN_SEPARATOR",
      "outputs": [
        {
          "internalType": "bytes32",
          "name": "",
          "type": "bytes32"
        }
      ],
      "stateMutability": "view",
      "type": "function"
    },
    {
      "inputs": [],
      "name": "PERMIT_TYPEHASH",
      "outputs": [
        {
          "internalType": "bytes32",
          "name": "",
          "type": "bytes32"
        }
      ],
      "stateMutability": "view",
      "type": "function"
    },
    {
      "inputs": [
        {
          "internalType": "address",
          "name": "",
          "type": "address"
        },
        {
          "internalType": "address",
          "name": "",
          "type": "address"
        }
      ],
      "name": "allowance",
      "outputs": [
        {
          "internalType": "uint256",
          "name": "",
          "type": "uint256"
        }
      ],
      "stateMutability": "view",
      "type": "function"
    },
    {
      "inputs": [
        {
          "internalType": "address",
          "name": "spender",
          "type": "address"
        },
        {
          "internalType": "uint256",
          "name": "amount",
          "type": "uint256"
        }
      ],
      "name": "approve",
      "outputs": [
        {
          "internalType": "bool",
          "name": "",
          "type": "bool"
        }
      ],
      "stateMutability": "nonpayable",
      "type": "function"
    },
    {
      "inputs": [
        {
          "internalType": "address",
          "name": "",
          "type": "address"
        }
      ],
      "name": "balanceOf",
      "outputs": [
        {
          "internalType": "uint256",
          "name": "",
          "type": "uint256"
        }
      ],
      "stateMutability": "view",
      "type": "function"
    },
    {
      "inputs": [],
      "name": "decimals",
      "outputs": [
        {
          "internalType": "uint8",
          "name": "",
          "type": "uint8"
        }
      ],
      "stateMutability": "view",
      "type": "function"
    },
    {
      "inputs": [
        {
          "internalType": "address",
          "name": "to",
          "type": "address"
        },
        {
          "internalType": "uint256",
          "name": "amount",
          "type": "uint256"
        }
      ],
      "name": "mint",
      "outputs": [],
      "stateMutability": "nonpayable",
      "type": "function"
    },
    {
      "inputs": [],
      "name": "name",
      "outputs": [
        {
          "internalType": "string",
          "name": "",
          "type": "string"
        }
      ],
      "stateMutability": "view",
      "type": "function"
    },
    {
      "inputs": [
        {
          "internalType": "address",
          "name": "",
          "type": "address"
        }
      ],
      "name": "nonces",
      "outputs": [
        {
          "internalType": "uint256",
          "name": "",
          "type": "uint256"
        }
      ],
      "stateMutability": "view",
      "type": "function"
    },
    {
      "inputs": [
        {
          "internalType": "address",
          "name": "owner",
          "type": "address"
        },
        {
          "internalType": "address",
          "name": "spender",
          "type": "address"
        },
        {
          "internalType": "uint256",
          "name": "value",
          "type": "uint256"
        },
        {
          "internalType": "uint256",
          "name": "deadline",
          "type": "uint256"
        },
        {
          "internalType": "uint8",
          "name": "v",
          "type": "uint8"
        },
        {
          "internalType": "bytes32",
          "name": "r",
          "type": "bytes32"
        },
        {
          "internalType": "bytes32",
          "name": "s",
          "type": "bytes32"
        }
      ],
      "name": "permit",
      "outputs": [],
      "stateMutability": "nonpayable",
      "type": "function"
    },
    {
      "inputs": [],
      "name": "symbol",
      "outputs": [
        {
          "internalType": "string",
          "name": "",
          "type": "string"
        }
      ],
      "stateMutability": "view",
      "type": "function"
    },
    {
      "inputs": [],
      "name": "totalSupply",
      "outputs": [
        {
          "internalType": "uint256",
          "name": "",
          "type": "uint256"
        }
      ],
      "stateMutability": "view",
      "type": "function"
    },
    {
      "inputs": [
        {
          "internalType": "address",
          "name": "to",
          "type": "address"
        },
        {
          "internalType": "uint256",
          "name": "amount",
          "type": "uint256"
        }
      ],
      "name": "transfer",
      "outputs": [
        {
          "internalType": "bool",
          "name": "",
          "type": "bool"
        }
      ],
      "stateMutability": "nonpayable",
      "type": "function"
    },
    {
      "inputs": [
        {
          "internalType": "address",
          "name": "from",
          "type": "address"
        },
        {
          "internalType": "address",
          "name": "to",
          "type": "address"
        },
        {
          "internalType": "uint256",
          "name": "amount",
          "type": "uint256"
        }
      ],
      "name": "transferFrom",
      "outputs": [
        {
          "internalType": "bool",
          "name": "",
          "type": "bool"
        }
      ],
      "stateMutability": "nonpayable",
      "type": "function"
    }
  ],
  "bytecode": "0x60e06040523480156200001157600080fd5b506040518060400160405280600a81526020017f343632362d5375736869000000000000000000000000000000000000000000008152506040518060400160405280600481526020017f3436785300000000000000000000000000000000000000000000000000000000815250601282600090805190602001906200009892919062000178565b508160019080519060200190620000b192919062000178565b508060ff1660808160ff16815250504660a08181525050620000d8620000e860201b60201c565b60c0818152505050505062000429565b60007f8b73c3c69bb8fe3d512ecc4cf759cc79239f7b179b0ffacaa9a75d522b39400f60006040516200011c919062000338565b60405180910390207fc89efdaa54c0f20c7adf612882df0950f5a951637e0307cdcb4c672f298b8bc646306040516020016200015d959493929190620003cc565b60405160208183030381529060405280519060200120905090565b828054620001869062000257565b90600052602060002090601f016020900481019282620001aa5760008555620001f6565b82601f10620001c557805160ff1916838001178555620001f6565b82800160010185558215620001f6579182015b82811115620001f5578251825591602001919060010190620001d8565b5b50905062000205919062000209565b5090565b5b80821115620002245760008160009055506001016200020a565b5090565b7f4e487b7100000000000000000000000000000000000000000000000000000000600052602260045260246000fd5b600060028204905060018216806200027057607f821691505b6020821081141562000287576200028662000228565b5b50919050565b600081905092915050565b60008190508160005260206000209050919050565b60008154620002bc8162000257565b620002c881866200028d565b94506001821660008114620002e65760018114620002f8576200032f565b60ff198316865281860193506200032f565b620003038562000298565b60005b83811015620003275781548189015260018201915060208101905062000306565b838801955050505b50505092915050565b6000620003468284620002ad565b915081905092915050565b6000819050919050565b620003668162000351565b82525050565b6000819050919050565b62000381816200036c565b82525050565b600073ffffffffffffffffffffffffffffffffffffffff82169050919050565b6000620003b48262000387565b9050919050565b620003c681620003a7565b82525050565b600060a082019050620003e360008301886200035b565b620003f260208301876200035b565b6200040160408301866200035b565b62000410606083018562000376565b6200041f6080830184620003bb565b9695505050505050565b60805160a05160c05161167e62000459600039600061074b01526000610717015260006106f1015261167e6000f3fe608060405234801561001057600080fd5b50600436106100ea5760003560e01c806340c10f191161008c57806395d89b411161006657806395d89b4114610261578063a9059cbb1461027f578063d505accf146102af578063dd62ed3e146102cb576100ea565b806340c10f19146101e557806370a08231146102015780637ecebe0014610231576100ea565b806323b872dd116100c857806323b872dd1461015b57806330adf81f1461018b578063313ce567146101a95780633644e515146101c7576100ea565b806306fdde03146100ef578063095ea7b31461010d57806318160ddd1461013d575b600080fd5b6100f76102fb565b6040516101049190610e69565b60405180910390f35b61012760048036038101906101229190610f24565b610389565b6040516101349190610f7f565b60405180910390f35b61014561047b565b6040516101529190610fa9565b60405180910390f35b61017560048036038101906101709190610fc4565b610481565b6040516101829190610f7f565b60405180910390f35b6101936106cb565b6040516101a09190611030565b60405180910390f35b6101b16106ef565b6040516101be9190611067565b60405180910390f35b6101cf610713565b6040516101dc9190611030565b60405180910390f35b6101ff60048036038101906101fa9190610f24565b610770565b005b61021b60048036038101906102169190611082565b61077e565b6040516102289190610fa9565b60405180910390f35b61024b60048036038101906102469190611082565b610796565b6040516102589190610fa9565b60405180910390f35b6102696107ae565b6040516102769190610e69565b60405180910390f35b61029960048036038101906102949190610f24565b61083c565b6040516102a69190610f7f565b60405180910390f35b6102c960048036038101906102c49190611107565b610950565b005b6102e560048036038101906102e091906111a9565b610c4f565b6040516102f29190610fa9565b60405180910390f35b6000805461030890611218565b80601f016020809104026020016040519081016040528092919081815260200182805461033490611218565b80156103815780601f1061035657610100808354040283529160200191610381565b820191906000526020600020905b81548152906001019060200180831161036457829003601f168201915b505050505081565b600081600460003373ffffffffffffffffffffffffffffffffffffffff1673ffffffffffffffffffffffffffffffffffffffff16815260200190815260200160002060008573ffffffffffffffffffffffffffffffffffffffff1673ffffffffffffffffffffffffffffffffffffffff168152602001908152602001600020819055508273ffffffffffffffffffffffffffffffffffffffff163373ffffffffffffffffffffffffffffffffffffffff167f8c5be1e5ebec7d5bd14f71427d1e84f3dd0314c0f7b2291e5b200ac8c7c3b925846040516104699190610fa9565b60405180910390a36001905092915050565b60025481565b600080600460008673ffffffffffffffffffffffffffffffffffffffff1673ffffffffffffffffffffffffffffffffffffffff16815260200190815260200160002060003373ffffffffffffffffffffffffffffffffffffffff1673ffffffffffffffffffffffffffffffffffffffff1681526020019081526020016000205490507fffffffffffffffffffffffffffffffffffffffffffffffffffffffffffffffff81146105b75782816105369190611279565b600460008773ffffffffffffffffffffffffffffffffffffffff1673ffffffffffffffffffffffffffffffffffffffff16815260200190815260200160002060003373ffffffffffffffffffffffffffffffffffffffff1673ffffffffffffffffffffffffffffffffffffffff168152602001908152602001600020819055505b82600360008773ffffffffffffffffffffffffffffffffffffffff1673ffffffffffffffffffffffffffffffffffffffff16815260200190815260200160002060008282546106069190611279565b9250508190555082600360008673ffffffffffffffffffffffffffffffffffffffff1673ffffffffffffffffffffffffffffffffffffffff168152602001908152602001600020600082825401925050819055508373ffffffffffffffffffffffffffffffffffffffff168573ffffffffffffffffffffffffffffffffffffffff167fddf252ad1be2c89b69c2b068fc378daa952ba7f163c4a11628f55a4df523b3ef856040516106b79190610fa9565b60405180910390a360019150509392505050565b7f6e71edae12b1b97f4d1f60370fef10105fa2faae0126114a169c64845d6126c981565b7f000000000000000000000000000000000000000000000000000000000000000081565b60007f0000000000000000000000000000000000000000000000000000000000000000461461074957610744610c74565b61076b565b7f00000000000000000000000000000000000000000000000000000000000000005b905090565b61077a8282610d00565b5050565b60036020528060005260406000206000915090505481565b60056020528060005260406000206000915090505481565b600180546107bb90611218565b80601f01602080910402602001604051908101604052809291908181526020018280546107e790611218565b80156108345780601f1061080957610100808354040283529160200191610834565b820191906000526020600020905b81548152906001019060200180831161081757829003601f168201915b505050505081565b600081600360003373ffffffffffffffffffffffffffffffffffffffff1673ffffffffffffffffffffffffffffffffffffffff168152602001908152602001600020600082825461088d9190611279565b9250508190555081600360008573ffffffffffffffffffffffffffffffffffffffff1673ffffffffffffffffffffffffffffffffffffffff168152602001908152602001600020600082825401925050819055508273ffffffffffffffffffffffffffffffffffffffff163373ffffffffffffffffffffffffffffffffffffffff167fddf252ad1be2c89b69c2b068fc378daa952ba7f163c4a11628f55a4df523b3ef8460405161093e9190610fa9565b60405180910390a36001905092915050565b42841015610993576040517f08c379a000000000000000000000000000000000000000000000000000000000815260040161098a906112f9565b60405180910390fd5b600061099d610713565b7f6e71edae12b1b97f4d1f60370fef10105fa2faae0126114a169c64845d6126c9898989600560008e73ffffffffffffffffffffffffffffffffffffffff1673ffffffffffffffffffffffffffffffffffffffff1681526020019081526020016000206000815480929190600101919050558a604051602001610a2596959493929190611328565b60405160208183030381529060405280519060200120604051602001610a4c929190611401565b604051602081830303815290604052805190602001209050600060018286868660405160008152602001604052604051610a899493929190611438565b6020604051602081039080840390855afa158015610aab573d6000803e3d6000fd5b505050602060405103519050600073ffffffffffffffffffffffffffffffffffffffff168173ffffffffffffffffffffffffffffffffffffffff1614158015610b1f57508873ffffffffffffffffffffffffffffffffffffffff168173ffffffffffffffffffffffffffffffffffffffff16145b610b5e576040517f08c379a0000000000000000000000000000000000000000000000000000000008152600401610b55906114c9565b60405180910390fd5b86600460008373ffffffffffffffffffffffffffffffffffffffff1673ffffffffffffffffffffffffffffffffffffffff16815260200190815260200160002060008a73ffffffffffffffffffffffffffffffffffffffff1673ffffffffffffffffffffffffffffffffffffffff1681526020019081526020016000208190555050508573ffffffffffffffffffffffffffffffffffffffff168773ffffffffffffffffffffffffffffffffffffffff167f8c5be1e5ebec7d5bd14f71427d1e84f3dd0314c0f7b2291e5b200ac8c7c3b92587604051610c3e9190610fa9565b60405180910390a350505050505050565b6004602052816000526040600020602052806000526040600020600091509150505481565b60007f8b73c3c69bb8fe3d512ecc4cf759cc79239f7b179b0ffacaa9a75d522b39400f6000604051610ca69190611588565b60405180910390207fc89efdaa54c0f20c7adf612882df0950f5a951637e0307cdcb4c672f298b8bc64630604051602001610ce595949392919061159f565b60405160208183030381529060405280519060200120905090565b8060026000828254610d1291906115f2565b9250508190555080600360008473ffffffffffffffffffffffffffffffffffffffff1673ffffffffffffffffffffffffffffffffffffffff168152602001908152602001600020600082825401925050819055508173ffffffffffffffffffffffffffffffffffffffff16600073ffffffffffffffffffffffffffffffffffffffff167fddf252ad1be2c89b69c2b068fc378daa952ba7f163c4a11628f55a4df523b3ef83604051610dc49190610fa9565b60405180910390a35050565b600081519050919050565b600082825260208201905092915050565b60005b83811015610e0a578082015181840152602081019050610def565b83811115610e19576000848401525b50505050565b6000601f19601f8301169050919050565b6000610e3b82610dd0565b610e458185610ddb565b9350610e55818560208601610dec565b610e5e81610e1f565b840191505092915050565b60006020820190508181036000830152610e838184610e30565b905092915050565b600080fd5b600073ffffffffffffffffffffffffffffffffffffffff82169050919050565b6000610ebb82610e90565b9050919050565b610ecb81610eb0565b8114610ed657600080fd5b50565b600081359050610ee881610ec2565b92915050565b6000819050919050565b610f0181610eee565b8114610f0c57600080fd5b50565b600081359050610f1e81610ef8565b92915050565b60008060408385031215610f3b57610f3a610e8b565b5b6000610f4985828601610ed9565b9250506020610f5a85828601610f0f565b9150509250929050565b60008115159050919050565b610f7981610f64565b82525050565b6000602082019050610f946000830184610f70565b92915050565b610fa381610eee565b82525050565b6000602082019050610fbe6000830184610f9a565b92915050565b600080600060608486031215610fdd57610fdc610e8b565b5b6000610feb86828701610ed9565b9350506020610ffc86828701610ed9565b925050604061100d86828701610f0f565b9150509250925092565b6000819050919050565b61102a81611017565b82525050565b60006020820190506110456000830184611021565b92915050565b600060ff82169050919050565b6110618161104b565b82525050565b600060208201905061107c6000830184611058565b92915050565b60006020828403121561109857611097610e8b565b5b60006110a684828501610ed9565b91505092915050565b6110b88161104b565b81146110c357600080fd5b50565b6000813590506110d5816110af565b92915050565b6110e481611017565b81146110ef57600080fd5b50565b600081359050611101816110db565b92915050565b600080600080600080600060e0888a03121561112657611125610e8b565b5b60006111348a828b01610ed9565b97505060206111458a828b01610ed9565b96505060406111568a828b01610f0f565b95505060606111678a828b01610f0f565b94505060806111788a828b016110c6565b93505060a06111898a828b016110f2565b92505060c061119a8a828b016110f2565b91505092959891949750929550565b600080604083850312156111c0576111bf610e8b565b5b60006111ce85828601610ed9565b92505060206111df85828601610ed9565b9150509250929050565b7f4e487b7100000000000000000000000000000000000000000000000000000000600052602260045260246000fd5b6000600282049050600182168061123057607f821691505b60208210811415611244576112436111e9565b5b50919050565b7f4e487b7100000000000000000000000000000000000000000000000000000000600052601160045260246000fd5b600061128482610eee565b915061128f83610eee565b9250828210156112a2576112a161124a565b5b828203905092915050565b7f5045524d49545f444541444c494e455f45585049524544000000000000000000600082015250565b60006112e3601783610ddb565b91506112ee826112ad565b602082019050919050565b60006020820190508181036000830152611312816112d6565b9050919050565b61132281610eb0565b82525050565b600060c08201905061133d6000830189611021565b61134a6020830188611319565b6113576040830187611319565b6113646060830186610f9a565b6113716080830185610f9a565b61137e60a0830184610f9a565b979650505050505050565b600081905092915050565b7f1901000000000000000000000000000000000000000000000000000000000000600082015250565b60006113ca600283611389565b91506113d582611394565b600282019050919050565b6000819050919050565b6113fb6113f682611017565b6113e0565b82525050565b600061140c826113bd565b915061141882856113ea565b60208201915061142882846113ea565b6020820191508190509392505050565b600060808201905061144d6000830187611021565b61145a6020830186611058565b6114676040830185611021565b6114746060830184611021565b95945050505050565b7f494e56414c49445f5349474e4552000000000000000000000000000000000000600082015250565b60006114b3600e83610ddb565b91506114be8261147d565b602082019050919050565b600060208201905081810360008301526114e2816114a6565b9050919050565b600081905092915050565b60008190508160005260206000209050919050565b6000815461151681611218565b61152081866114e9565b9450600182166000811461153b576001811461154c5761157f565b60ff1983168652818601935061157f565b611555856114f4565b60005b8381101561157757815481890152600182019150602081019050611558565b838801955050505b50505092915050565b60006115948284611509565b915081905092915050565b600060a0820190506115b46000830188611021565b6115c16020830187611021565b6115ce6040830186611021565b6115db6060830185610f9a565b6115e86080830184611319565b9695505050505050565b60006115fd82610eee565b915061160883610eee565b9250827fffffffffffffffffffffffffffffffffffffffffffffffffffffffffffffffff0382111561163d5761163c61124a565b5b82820190509291505056fea264697066735822122028e9dc93a7841229baa7f2d2e5e98eb2038cf5fc59d6764e65f50c507ed2e41a64736f6c634300080b0033",
  "linkReferences": {},
  "deployedLinkReferences": {}
}