{
  "_format": "hh-sol-artifact-1",
  "contractName": "StrategyDAICompoundBasic",
  "sourceName": "contracts/yearn-v2/StrategyDAICompoundBasic.sol",
  "abi": [
    {
      "inputs": [
        {
          "internalType": "address",
          "name": "_controller",
          "type": "address"
        }
      ],
      "stateMutability": "nonpayable",
      "type": "constructor"
    },
    {
      "inputs": [],
      "name": "balanceC",
      "outputs": [
        {
          "internalType": "uint256",
          "name": "",
          "type": "uint256"
        }
      ],
      "stateMutability": "view",
      "type": "function"
    },
    {
      "inputs": [],
      "name": "balanceCInToken",
      "outputs": [
        {
          "internalType": "uint256",
          "name": "",
          "type": "uint256"
        }
      ],
      "stateMutability": "view",
      "type": "function"
    },
    {
      "inputs": [],
      "name": "balanceOf",
      "outputs": [
        {
          "internalType": "uint256",
          "name": "",
          "type": "uint256"
        }
      ],
      "stateMutability": "view",
      "type": "function"
    },
    {
      "inputs": [],
      "name": "balanceOfWant",
      "outputs": [
        {
          "internalType": "uint256",
          "name": "",
          "type": "uint256"
        }
      ],
      "stateMutability": "view",
      "type": "function"
    },
    {
      "inputs": [],
      "name": "cDAI",
      "outputs": [
        {
          "internalType": "address",
          "name": "",
          "type": "address"
        }
      ],
      "stateMutability": "view",
      "type": "function"
    },
    {
      "inputs": [],
      "name": "comp",
      "outputs": [
        {
          "internalType": "address",
          "name": "",
          "type": "address"
        }
      ],
      "stateMutability": "view",
      "type": "function"
    },
    {
      "inputs": [],
      "name": "compound",
      "outputs": [
        {
          "internalType": "contract Comptroller",
          "name": "",
          "type": "address"
        }
      ],
      "stateMutability": "view",
      "type": "function"
    },
    {
      "inputs": [],
      "name": "controller",
      "outputs": [
        {
          "internalType": "address",
          "name": "",
          "type": "address"
        }
      ],
      "stateMutability": "view",
      "type": "function"
    },
    {
      "inputs": [],
      "name": "deposit",
      "outputs": [],
      "stateMutability": "nonpayable",
      "type": "function"
    },
    {
      "inputs": [],
      "name": "getName",
      "outputs": [
        {
          "internalType": "string",
          "name": "",
          "type": "string"
        }
      ],
      "stateMutability": "pure",
      "type": "function"
    },
    {
      "inputs": [],
      "name": "governance",
      "outputs": [
        {
          "internalType": "address",
          "name": "",
          "type": "address"
        }
      ],
      "stateMutability": "view",
      "type": "function"
    },
    {
      "inputs": [],
      "name": "harvest",
      "outputs": [],
      "stateMutability": "nonpayable",
      "type": "function"
    },
    {
      "inputs": [],
      "name": "performanceFee",
      "outputs": [
        {
          "internalType": "uint256",
          "name": "",
          "type": "uint256"
        }
      ],
      "stateMutability": "view",
      "type": "function"
    },
    {
      "inputs": [],
      "name": "performanceMax",
      "outputs": [
        {
          "internalType": "uint256",
          "name": "",
          "type": "uint256"
        }
      ],
      "stateMutability": "view",
      "type": "function"
    },
    {
      "inputs": [
        {
          "internalType": "address",
          "name": "_controller",
          "type": "address"
        }
      ],
      "name": "setController",
      "outputs": [],
      "stateMutability": "nonpayable",
      "type": "function"
    },
    {
      "inputs": [
        {
          "internalType": "address",
          "name": "_governance",
          "type": "address"
        }
      ],
      "name": "setGovernance",
      "outputs": [],
      "stateMutability": "nonpayable",
      "type": "function"
    },
    {
      "inputs": [
        {
          "internalType": "uint256",
          "name": "_performanceFee",
          "type": "uint256"
        }
      ],
      "name": "setPerformanceFee",
      "outputs": [],
      "stateMutability": "nonpayable",
      "type": "function"
    },
    {
      "inputs": [
        {
          "internalType": "address",
          "name": "_strategist",
          "type": "address"
        }
      ],
      "name": "setStrategist",
      "outputs": [],
      "stateMutability": "nonpayable",
      "type": "function"
    },
    {
      "inputs": [
        {
          "internalType": "uint256",
          "name": "_withdrawalFee",
          "type": "uint256"
        }
      ],
      "name": "setWithdrawalFee",
      "outputs": [],
      "stateMutability": "nonpayable",
      "type": "function"
    },
    {
      "inputs": [],
      "name": "strategist",
      "outputs": [
        {
          "internalType": "address",
          "name": "",
          "type": "address"
        }
      ],
      "stateMutability": "view",
      "type": "function"
    },
    {
      "inputs": [],
      "name": "uni",
      "outputs": [
        {
          "internalType": "address",
          "name": "",
          "type": "address"
        }
      ],
      "stateMutability": "view",
      "type": "function"
    },
    {
      "inputs": [],
      "name": "want",
      "outputs": [
        {
          "internalType": "address",
          "name": "",
          "type": "address"
        }
      ],
      "stateMutability": "view",
      "type": "function"
    },
    {
      "inputs": [],
      "name": "weth",
      "outputs": [
        {
          "internalType": "address",
          "name": "",
          "type": "address"
        }
      ],
      "stateMutability": "view",
      "type": "function"
    },
    {
      "inputs": [
        {
          "internalType": "uint256",
          "name": "_amount",
          "type": "uint256"
        }
      ],
      "name": "withdraw",
      "outputs": [],
      "stateMutability": "nonpayable",
      "type": "function"
    },
    {
      "inputs": [
        {
          "internalType": "contract IERC20",
          "name": "_asset",
          "type": "address"
        }
      ],
      "name": "withdraw",
      "outputs": [
        {
          "internalType": "uint256",
          "name": "balance",
          "type": "uint256"
        }
      ],
      "stateMutability": "nonpayable",
      "type": "function"
    },
    {
      "inputs": [],
      "name": "withdrawAll",
      "outputs": [
        {
          "internalType": "uint256",
          "name": "balance",
          "type": "uint256"
        }
      ],
      "stateMutability": "nonpayable",
      "type": "function"
    },
    {
      "inputs": [],
      "name": "withdrawalFee",
      "outputs": [
        {
          "internalType": "uint256",
          "name": "",
          "type": "uint256"
        }
      ],
      "stateMutability": "view",
      "type": "function"
    },
    {
      "inputs": [],
      "name": "withdrawalMax",
      "outputs": [
        {
          "internalType": "uint256",
          "name": "",
          "type": "uint256"
        }
      ],
      "stateMutability": "view",
      "type": "function"
    }
  ],
  "bytecode": "0x60806040526101f460005560326001553480156200001c57600080fd5b5060405162002ec338038062002ec3833981810160405281019062000042919062000176565b33600260006101000a81548173ffffffffffffffffffffffffffffffffffffffff021916908373ffffffffffffffffffffffffffffffffffffffff16021790555033600460006101000a81548173ffffffffffffffffffffffffffffffffffffffff021916908373ffffffffffffffffffffffffffffffffffffffff16021790555080600360006101000a81548173ffffffffffffffffffffffffffffffffffffffff021916908373ffffffffffffffffffffffffffffffffffffffff16021790555050620001a8565b600080fd5b600073ffffffffffffffffffffffffffffffffffffffff82169050919050565b60006200013e8262000111565b9050919050565b620001508162000131565b81146200015c57600080fd5b50565b600081519050620001708162000145565b92915050565b6000602082840312156200018f576200018e6200010c565b5b60006200019f848285016200015f565b91505092915050565b612d0b80620001b86000396000f3fe608060405234801561001057600080fd5b50600436106101c45760003560e01c8063853828b6116100f9578063c1a3d44c11610097578063d5c1ff7311610071578063d5c1ff7314610477578063edc9af9514610495578063f69e2046146104b3578063f77c4791146104d1576101c4565b8063c1a3d44c14610433578063c7b9d53014610451578063d0e30db01461046d576101c4565b806392eefe9b116100d357806392eefe9b146103c1578063ab033ea9146103dd578063ac1e5025146103f9578063b655d65314610415576101c4565b8063853828b61461036757806387788782146103855780638bc7e8c4146103a3576101c4565b80634641257d116101665780636f6941b9116101405780636f6941b9146102f157806370897b231461030f578063722713f71461032b5780637cc7911314610349576101c4565b80634641257d1461029957806351cff8d9146102a35780635aa6e675146102d3576101c4565b80631fe4a686116101a25780631fe4a686146102235780632e1a7d4d146102415780633fc8cef31461025d5780634254b5061461027b576101c4565b8063109d0af8146101c957806317d7de7c146101e75780631f1fcd5114610205575b600080fd5b6101d16104ef565b6040516101de91906122dc565b60405180910390f35b6101ef610507565b6040516101fc9190612390565b60405180910390f35b61020d610544565b60405161021a91906122dc565b60405180910390f35b61022b61055c565b60405161023891906122dc565b60405180910390f35b61025b600480360381019061025691906123ed565b610582565b005b6102656109db565b60405161027291906122dc565b60405180910390f35b6102836109f3565b6040516102909190612429565b60405180910390f35b6102a1610ab4565b005b6102bd60048036038101906102b89190612482565b6111fe565b6040516102ca9190612429565b60405180910390f35b6102db61153b565b6040516102e891906122dc565b60405180910390f35b6102f9611561565b60405161030691906122dc565b60405180910390f35b610329600480360381019061032491906123ed565b611579565b005b610333611613565b6040516103409190612429565b60405180910390f35b610351611634565b60405161035e9190612429565b60405180910390f35b61036f61163a565b60405161037c9190612429565b60405180910390f35b61038d61191f565b60405161039a9190612429565b60405180910390f35b6103ab611925565b6040516103b89190612429565b60405180910390f35b6103db60048036038101906103d691906124db565b61192b565b005b6103f760048036038101906103f291906124db565b6119ff565b005b610413600480360381019061040e91906123ed565b611ad3565b005b61041d611b6d565b60405161042a9190612429565b60405180910390f35b61043b611c02565b6040516104489190612429565b60405180910390f35b61046b600480360381019061046691906124db565b611c97565b005b610475611d6b565b005b61047f611fea565b60405161048c9190612429565b60405180910390f35b61049d611ff0565b6040516104aa91906122dc565b60405180910390f35b6104bb612008565b6040516104c89190612567565b60405180910390f35b6104d9612020565b6040516104e691906122dc565b60405180910390f35b73c00e94cb662c3520282e6f5717214004a7f2688881565b60606040518060400160405280601481526020017f5374726174656779444149436f6d704261736963000000000000000000000000815250905090565b736b175474e89094c44da98b954eedeac495271d0f81565b600460009054906101000a900473ffffffffffffffffffffffffffffffffffffffff1681565b600360009054906101000a900473ffffffffffffffffffffffffffffffffffffffff1673ffffffffffffffffffffffffffffffffffffffff163373ffffffffffffffffffffffffffffffffffffffff1614610612576040517f08c379a0000000000000000000000000000000000000000000000000000000008152600401610609906125ce565b60405180910390fd5b6000736b175474e89094c44da98b954eedeac495271d0f73ffffffffffffffffffffffffffffffffffffffff166370a08231306040518263ffffffff1660e01b815260040161066191906122dc565b602060405180830381865afa15801561067e573d6000803e3d6000fd5b505050506040513d601f19601f820116820180604052508101906106a29190612603565b9050818110156106d1576106c081836106bb919061265f565b612046565b915080826106ce9190612693565b91505b6000612710600154846106e491906126e9565b6106ee9190612772565b9050736b175474e89094c44da98b954eedeac495271d0f73ffffffffffffffffffffffffffffffffffffffff1663a9059cbb600360009054906101000a900473ffffffffffffffffffffffffffffffffffffffff1673ffffffffffffffffffffffffffffffffffffffff16639ec5a8946040518163ffffffff1660e01b8152600401602060405180830381865afa15801561078d573d6000803e3d6000fd5b505050506040513d601f19601f820116820180604052508101906107b191906127b8565b836040518363ffffffff1660e01b81526004016107cf9291906127e5565b6020604051808303816000875af11580156107ee573d6000803e3d6000fd5b505050506040513d601f19601f820116820180604052508101906108129190612846565b506000600360009054906101000a900473ffffffffffffffffffffffffffffffffffffffff1673ffffffffffffffffffffffffffffffffffffffff1663a622ee7c736b175474e89094c44da98b954eedeac495271d0f6040518263ffffffff1660e01b815260040161088491906122dc565b602060405180830381865afa1580156108a1573d6000803e3d6000fd5b505050506040513d601f19601f820116820180604052508101906108c591906127b8565b9050600073ffffffffffffffffffffffffffffffffffffffff168173ffffffffffffffffffffffffffffffffffffffff161415610937576040517f08c379a000000000000000000000000000000000000000000000000000000000815260040161092e906128bf565b60405180910390fd5b736b175474e89094c44da98b954eedeac495271d0f73ffffffffffffffffffffffffffffffffffffffff1663a9059cbb828487610974919061265f565b6040518363ffffffff1660e01b81526004016109919291906127e5565b6020604051808303816000875af11580156109b0573d6000803e3d6000fd5b505050506040513d601f19601f820116820180604052508101906109d49190612846565b5050505050565b73c02aaa39b223fe8d0a0e5c4f27ead9083c756cc281565b6000806109fe611b6d565b90506000811115610aad57670de0b6b3a7640000735d3a536e4d6dbd6114cc1ead35777bab948e364373ffffffffffffffffffffffffffffffffffffffff1663182df0f56040518163ffffffff1660e01b8152600401602060405180830381865afa158015610a71573d6000803e3d6000fd5b505050506040513d601f19601f82011682018060405250810190610a959190612603565b610a9f9190612772565b81610aaa91906126e9565b90505b8091505090565b600460009054906101000a900473ffffffffffffffffffffffffffffffffffffffff1673ffffffffffffffffffffffffffffffffffffffff163373ffffffffffffffffffffffffffffffffffffffff161480610b5d5750600260009054906101000a900473ffffffffffffffffffffffffffffffffffffffff1673ffffffffffffffffffffffffffffffffffffffff163373ffffffffffffffffffffffffffffffffffffffff16145b610b9c576040517f08c379a0000000000000000000000000000000000000000000000000000000008152600401610b939061292b565b60405180910390fd5b733d9819210a31b4961b30ef54be2aed79b9c9cd3b73ffffffffffffffffffffffffffffffffffffffff1663e9af0292306040518263ffffffff1660e01b8152600401610be991906122dc565b600060405180830381600087803b158015610c0357600080fd5b505af1158015610c17573d6000803e3d6000fd5b50505050600073c00e94cb662c3520282e6f5717214004a7f2688873ffffffffffffffffffffffffffffffffffffffff166370a08231306040518263ffffffff1660e01b8152600401610c6a91906122dc565b602060405180830381865afa158015610c87573d6000803e3d6000fd5b505050506040513d601f19601f82011682018060405250810190610cab9190612603565b905060008111156110135773c00e94cb662c3520282e6f5717214004a7f2688873ffffffffffffffffffffffffffffffffffffffff1663095ea7b3737a250d5630b4cf539739df2c5dacb4c659f2488d60006040518363ffffffff1660e01b8152600401610d1a929190612986565b6020604051808303816000875af1158015610d39573d6000803e3d6000fd5b505050506040513d601f19601f82011682018060405250810190610d5d9190612846565b5073c00e94cb662c3520282e6f5717214004a7f2688873ffffffffffffffffffffffffffffffffffffffff1663095ea7b3737a250d5630b4cf539739df2c5dacb4c659f2488d836040518363ffffffff1660e01b8152600401610dc19291906127e5565b6020604051808303816000875af1158015610de0573d6000803e3d6000fd5b505050506040513d601f19601f82011682018060405250810190610e049190612846565b506000600367ffffffffffffffff811115610e2257610e216129af565b5b604051908082528060200260200182016040528015610e505781602001602082028036833780820191505090505b50905073c00e94cb662c3520282e6f5717214004a7f2688881600081518110610e7c57610e7b6129de565b5b602002602001019073ffffffffffffffffffffffffffffffffffffffff16908173ffffffffffffffffffffffffffffffffffffffff168152505073c02aaa39b223fe8d0a0e5c4f27ead9083c756cc281600181518110610edf57610ede6129de565b5b602002602001019073ffffffffffffffffffffffffffffffffffffffff16908173ffffffffffffffffffffffffffffffffffffffff1681525050736b175474e89094c44da98b954eedeac495271d0f81600281518110610f4257610f416129de565b5b602002602001019073ffffffffffffffffffffffffffffffffffffffff16908173ffffffffffffffffffffffffffffffffffffffff1681525050737a250d5630b4cf539739df2c5dacb4c659f2488d73ffffffffffffffffffffffffffffffffffffffff166338ed1739836000843061070842610fbf9190612693565b6040518663ffffffff1660e01b8152600401610fdf959493929190612acb565b600060405180830381600087803b158015610ff957600080fd5b505af115801561100d573d6000803e3d6000fd5b50505050505b6000736b175474e89094c44da98b954eedeac495271d0f73ffffffffffffffffffffffffffffffffffffffff166370a08231306040518263ffffffff1660e01b815260040161106291906122dc565b602060405180830381865afa15801561107f573d6000803e3d6000fd5b505050506040513d601f19601f820116820180604052508101906110a39190612603565b905060008111156111fa576000612710600054836110c191906126e9565b6110cb9190612772565b9050736b175474e89094c44da98b954eedeac495271d0f73ffffffffffffffffffffffffffffffffffffffff1663a9059cbb600360009054906101000a900473ffffffffffffffffffffffffffffffffffffffff1673ffffffffffffffffffffffffffffffffffffffff16639ec5a8946040518163ffffffff1660e01b8152600401602060405180830381865afa15801561116a573d6000803e3d6000fd5b505050506040513d601f19601f8201168201806040525081019061118e91906127b8565b836040518363ffffffff1660e01b81526004016111ac9291906127e5565b6020604051808303816000875af11580156111cb573d6000803e3d6000fd5b505050506040513d601f19601f820116820180604052508101906111ef9190612846565b506111f8611d6b565b505b5050565b6000600360009054906101000a900473ffffffffffffffffffffffffffffffffffffffff1673ffffffffffffffffffffffffffffffffffffffff163373ffffffffffffffffffffffffffffffffffffffff1614611290576040517f08c379a0000000000000000000000000000000000000000000000000000000008152600401611287906125ce565b60405180910390fd5b8173ffffffffffffffffffffffffffffffffffffffff16736b175474e89094c44da98b954eedeac495271d0f73ffffffffffffffffffffffffffffffffffffffff161415611313576040517f08c379a000000000000000000000000000000000000000000000000000000000815260040161130a90612b71565b60405180910390fd5b8173ffffffffffffffffffffffffffffffffffffffff16735d3a536e4d6dbd6114cc1ead35777bab948e364373ffffffffffffffffffffffffffffffffffffffff161415611396576040517f08c379a000000000000000000000000000000000000000000000000000000000815260040161138d90612bdd565b60405180910390fd5b8173ffffffffffffffffffffffffffffffffffffffff1673c00e94cb662c3520282e6f5717214004a7f2688873ffffffffffffffffffffffffffffffffffffffff161415611419576040517f08c379a000000000000000000000000000000000000000000000000000000000815260040161141090612c49565b60405180910390fd5b8173ffffffffffffffffffffffffffffffffffffffff166370a08231306040518263ffffffff1660e01b815260040161145291906122dc565b602060405180830381865afa15801561146f573d6000803e3d6000fd5b505050506040513d601f19601f820116820180604052508101906114939190612603565b90508173ffffffffffffffffffffffffffffffffffffffff1663a9059cbb600360009054906101000a900473ffffffffffffffffffffffffffffffffffffffff16836040518363ffffffff1660e01b81526004016114f29291906127e5565b6020604051808303816000875af1158015611511573d6000803e3d6000fd5b505050506040513d601f19601f820116820180604052508101906115359190612846565b50919050565b600260009054906101000a900473ffffffffffffffffffffffffffffffffffffffff1681565b735d3a536e4d6dbd6114cc1ead35777bab948e364381565b600260009054906101000a900473ffffffffffffffffffffffffffffffffffffffff1673ffffffffffffffffffffffffffffffffffffffff163373ffffffffffffffffffffffffffffffffffffffff1614611609576040517f08c379a000000000000000000000000000000000000000000000000000000000815260040161160090612cb5565b60405180910390fd5b8060008190555050565b600061161d6109f3565b611625611c02565b61162f9190612693565b905090565b61271081565b6000600360009054906101000a900473ffffffffffffffffffffffffffffffffffffffff1673ffffffffffffffffffffffffffffffffffffffff163373ffffffffffffffffffffffffffffffffffffffff16146116cc576040517f08c379a00000000000000000000000000000000000000000000000000000000081526004016116c3906125ce565b60405180910390fd5b6116d46121d1565b736b175474e89094c44da98b954eedeac495271d0f73ffffffffffffffffffffffffffffffffffffffff166370a08231306040518263ffffffff1660e01b815260040161172191906122dc565b602060405180830381865afa15801561173e573d6000803e3d6000fd5b505050506040513d601f19601f820116820180604052508101906117629190612603565b90506000600360009054906101000a900473ffffffffffffffffffffffffffffffffffffffff1673ffffffffffffffffffffffffffffffffffffffff1663a622ee7c736b175474e89094c44da98b954eedeac495271d0f6040518263ffffffff1660e01b81526004016117d591906122dc565b602060405180830381865afa1580156117f2573d6000803e3d6000fd5b505050506040513d601f19601f8201168201806040525081019061181691906127b8565b9050600073ffffffffffffffffffffffffffffffffffffffff168173ffffffffffffffffffffffffffffffffffffffff161415611888576040517f08c379a000000000000000000000000000000000000000000000000000000000815260040161187f906128bf565b60405180910390fd5b736b175474e89094c44da98b954eedeac495271d0f73ffffffffffffffffffffffffffffffffffffffff1663a9059cbb82846040518363ffffffff1660e01b81526004016118d79291906127e5565b6020604051808303816000875af11580156118f6573d6000803e3d6000fd5b505050506040513d601f19601f8201168201806040525081019061191a9190612846565b505090565b60005481565b60015481565b600260009054906101000a900473ffffffffffffffffffffffffffffffffffffffff1673ffffffffffffffffffffffffffffffffffffffff163373ffffffffffffffffffffffffffffffffffffffff16146119bb576040517f08c379a00000000000000000000000000000000000000000000000000000000081526004016119b290612cb5565b60405180910390fd5b80600360006101000a81548173ffffffffffffffffffffffffffffffffffffffff021916908373ffffffffffffffffffffffffffffffffffffffff16021790555050565b600260009054906101000a900473ffffffffffffffffffffffffffffffffffffffff1673ffffffffffffffffffffffffffffffffffffffff163373ffffffffffffffffffffffffffffffffffffffff1614611a8f576040517f08c379a0000000000000000000000000000000000000000000000000000000008152600401611a8690612cb5565b60405180910390fd5b80600260006101000a81548173ffffffffffffffffffffffffffffffffffffffff021916908373ffffffffffffffffffffffffffffffffffffffff16021790555050565b600260009054906101000a900473ffffffffffffffffffffffffffffffffffffffff1673ffffffffffffffffffffffffffffffffffffffff163373ffffffffffffffffffffffffffffffffffffffff1614611b63576040517f08c379a0000000000000000000000000000000000000000000000000000000008152600401611b5a90612cb5565b60405180910390fd5b8060018190555050565b6000735d3a536e4d6dbd6114cc1ead35777bab948e364373ffffffffffffffffffffffffffffffffffffffff166370a08231306040518263ffffffff1660e01b8152600401611bbc91906122dc565b602060405180830381865afa158015611bd9573d6000803e3d6000fd5b505050506040513d601f19601f82011682018060405250810190611bfd9190612603565b905090565b6000736b175474e89094c44da98b954eedeac495271d0f73ffffffffffffffffffffffffffffffffffffffff166370a08231306040518263ffffffff1660e01b8152600401611c5191906122dc565b602060405180830381865afa158015611c6e573d6000803e3d6000fd5b505050506040513d601f19601f82011682018060405250810190611c929190612603565b905090565b600260009054906101000a900473ffffffffffffffffffffffffffffffffffffffff1673ffffffffffffffffffffffffffffffffffffffff163373ffffffffffffffffffffffffffffffffffffffff1614611d27576040517f08c379a0000000000000000000000000000000000000000000000000000000008152600401611d1e90612cb5565b60405180910390fd5b80600460006101000a81548173ffffffffffffffffffffffffffffffffffffffff021916908373ffffffffffffffffffffffffffffffffffffffff16021790555050565b6000736b175474e89094c44da98b954eedeac495271d0f73ffffffffffffffffffffffffffffffffffffffff166370a08231306040518263ffffffff1660e01b8152600401611dba91906122dc565b602060405180830381865afa158015611dd7573d6000803e3d6000fd5b505050506040513d601f19601f82011682018060405250810190611dfb9190612603565b90506000811115611fe757736b175474e89094c44da98b954eedeac495271d0f73ffffffffffffffffffffffffffffffffffffffff1663095ea7b3735d3a536e4d6dbd6114cc1ead35777bab948e364360006040518363ffffffff1660e01b8152600401611e6a929190612986565b6020604051808303816000875af1158015611e89573d6000803e3d6000fd5b505050506040513d601f19601f82011682018060405250810190611ead9190612846565b50736b175474e89094c44da98b954eedeac495271d0f73ffffffffffffffffffffffffffffffffffffffff1663095ea7b3735d3a536e4d6dbd6114cc1ead35777bab948e3643836040518363ffffffff1660e01b8152600401611f119291906127e5565b6020604051808303816000875af1158015611f30573d6000803e3d6000fd5b505050506040513d601f19601f82011682018060405250810190611f549190612846565b50735d3a536e4d6dbd6114cc1ead35777bab948e364373ffffffffffffffffffffffffffffffffffffffff1663a0712d68826040518263ffffffff1660e01b8152600401611fa29190612429565b6020604051808303816000875af1158015611fc1573d6000803e3d6000fd5b505050506040513d601f19601f82011682018060405250810190611fe59190612603565b505b50565b61271081565b737a250d5630b4cf539739df2c5dacb4c659f2488d81565b733d9819210a31b4961b30ef54be2aed79b9c9cd3b81565b600360009054906101000a900473ffffffffffffffffffffffffffffffffffffffff1681565b600080612051611b6d565b9050600061205d6109f3565b90506000600182868561207091906126e9565b61207a9190612772565b6120849190612693565b90506000736b175474e89094c44da98b954eedeac495271d0f73ffffffffffffffffffffffffffffffffffffffff166370a08231306040518263ffffffff1660e01b81526004016120d591906122dc565b602060405180830381865afa1580156120f2573d6000803e3d6000fd5b505050506040513d601f19601f820116820180604052508101906121169190612603565b905061212182612207565b6000736b175474e89094c44da98b954eedeac495271d0f73ffffffffffffffffffffffffffffffffffffffff166370a08231306040518263ffffffff1660e01b815260040161217091906122dc565b602060405180830381865afa15801561218d573d6000803e3d6000fd5b505050506040513d601f19601f820116820180604052508101906121b19190612603565b9050600082826121c1919061265f565b9050809650505050505050919050565b60006121db611b6d565b905060008111156122045761220260016121f36109f3565b6121fd919061265f565b612046565b505b50565b735d3a536e4d6dbd6114cc1ead35777bab948e364373ffffffffffffffffffffffffffffffffffffffff1663db006a75826040518263ffffffff1660e01b81526004016122549190612429565b6020604051808303816000875af1158015612273573d6000803e3d6000fd5b505050506040513d601f19601f820116820180604052508101906122979190612603565b5050565b600073ffffffffffffffffffffffffffffffffffffffff82169050919050565b60006122c68261229b565b9050919050565b6122d6816122bb565b82525050565b60006020820190506122f160008301846122cd565b92915050565b600081519050919050565b600082825260208201905092915050565b60005b83811015612331578082015181840152602081019050612316565b83811115612340576000848401525b50505050565b6000601f19601f8301169050919050565b6000612362826122f7565b61236c8185612302565b935061237c818560208601612313565b61238581612346565b840191505092915050565b600060208201905081810360008301526123aa8184612357565b905092915050565b600080fd5b6000819050919050565b6123ca816123b7565b81146123d557600080fd5b50565b6000813590506123e7816123c1565b92915050565b600060208284031215612403576124026123b2565b5b6000612411848285016123d8565b91505092915050565b612423816123b7565b82525050565b600060208201905061243e600083018461241a565b92915050565b600061244f826122bb565b9050919050565b61245f81612444565b811461246a57600080fd5b50565b60008135905061247c81612456565b92915050565b600060208284031215612498576124976123b2565b5b60006124a68482850161246d565b91505092915050565b6124b8816122bb565b81146124c357600080fd5b50565b6000813590506124d5816124af565b92915050565b6000602082840312156124f1576124f06123b2565b5b60006124ff848285016124c6565b91505092915050565b6000819050919050565b600061252d6125286125238461229b565b612508565b61229b565b9050919050565b600061253f82612512565b9050919050565b600061255182612534565b9050919050565b61256181612546565b82525050565b600060208201905061257c6000830184612558565b92915050565b7f21636f6e74726f6c6c6572000000000000000000000000000000000000000000600082015250565b60006125b8600b83612302565b91506125c382612582565b602082019050919050565b600060208201905081810360008301526125e7816125ab565b9050919050565b6000815190506125fd816123c1565b92915050565b600060208284031215612619576126186123b2565b5b6000612627848285016125ee565b91505092915050565b7f4e487b7100000000000000000000000000000000000000000000000000000000600052601160045260246000fd5b600061266a826123b7565b9150612675836123b7565b92508282101561268857612687612630565b5b828203905092915050565b600061269e826123b7565b91506126a9836123b7565b9250827fffffffffffffffffffffffffffffffffffffffffffffffffffffffffffffffff038211156126de576126dd612630565b5b828201905092915050565b60006126f4826123b7565b91506126ff836123b7565b9250817fffffffffffffffffffffffffffffffffffffffffffffffffffffffffffffffff048311821515161561273857612737612630565b5b828202905092915050565b7f4e487b7100000000000000000000000000000000000000000000000000000000600052601260045260246000fd5b600061277d826123b7565b9150612788836123b7565b92508261279857612797612743565b5b828204905092915050565b6000815190506127b2816124af565b92915050565b6000602082840312156127ce576127cd6123b2565b5b60006127dc848285016127a3565b91505092915050565b60006040820190506127fa60008301856122cd565b612807602083018461241a565b9392505050565b60008115159050919050565b6128238161280e565b811461282e57600080fd5b50565b6000815190506128408161281a565b92915050565b60006020828403121561285c5761285b6123b2565b5b600061286a84828501612831565b91505092915050565b7f217661756c740000000000000000000000000000000000000000000000000000600082015250565b60006128a9600683612302565b91506128b482612873565b602082019050919050565b600060208201905081810360008301526128d88161289c565b9050919050565b7f21617574686f72697a6564000000000000000000000000000000000000000000600082015250565b6000612915600b83612302565b9150612920826128df565b602082019050919050565b6000602082019050818103600083015261294481612908565b9050919050565b6000819050919050565b600061297061296b6129668461294b565b612508565b6123b7565b9050919050565b61298081612955565b82525050565b600060408201905061299b60008301856122cd565b6129a86020830184612977565b9392505050565b7f4e487b7100000000000000000000000000000000000000000000000000000000600052604160045260246000fd5b7f4e487b7100000000000000000000000000000000000000000000000000000000600052603260045260246000fd5b600081519050919050565b600082825260208201905092915050565b6000819050602082019050919050565b612a42816122bb565b82525050565b6000612a548383612a39565b60208301905092915050565b6000602082019050919050565b6000612a7882612a0d565b612a828185612a18565b9350612a8d83612a29565b8060005b83811015612abe578151612aa58882612a48565b9750612ab083612a60565b925050600181019050612a91565b5085935050505092915050565b600060a082019050612ae0600083018861241a565b612aed602083018761241a565b8181036040830152612aff8186612a6d565b9050612b0e60608301856122cd565b612b1b608083018461241a565b9695505050505050565b7f77616e7400000000000000000000000000000000000000000000000000000000600082015250565b6000612b5b600483612302565b9150612b6682612b25565b602082019050919050565b60006020820190508181036000830152612b8a81612b4e565b9050919050565b7f6344414900000000000000000000000000000000000000000000000000000000600082015250565b6000612bc7600483612302565b9150612bd282612b91565b602082019050919050565b60006020820190508181036000830152612bf681612bba565b9050919050565b7f636f6d7000000000000000000000000000000000000000000000000000000000600082015250565b6000612c33600483612302565b9150612c3e82612bfd565b602082019050919050565b60006020820190508181036000830152612c6281612c26565b9050919050565b7f21676f7665726e616e6365000000000000000000000000000000000000000000600082015250565b6000612c9f600b83612302565b9150612caa82612c69565b602082019050919050565b60006020820190508181036000830152612cce81612c92565b905091905056fea2646970667358221220c64663a67e63af821eaf94a384ff24e4aefed099af81139a3323f560c71462a164736f6c634300080b0033",
  "linkReferences": {},
  "deployedLinkReferences": {}
}